:020000009E2A36
:0E000600213083120313FD00FD0B07280800B4
:06001400000000000800DE
:10001A000F3083120313FC004730FD00FD0B132839
:0A002A00FC0B132800000000080082
:1000340083120317A71B21280313881323280313F0
:1000440088170317271B2928031308132B280313C6
:1000540008170317A71A3128031388123328031328
:1000640088160317271A3928031308123B28031389
:1000740008166F183F2808154028081188150A200B
:1000840088110317A7194928031388134B2803134E
:100094008817031727195128031308135328031328
:1000A40008170317A7185928031388125B2803138A
:1000B40088160317271861280313081263280313EB
:1000C40008166F18672808156828081188150A206B
:0E00D40088116F1C6F280D2070280320080073
:1000E200831203136F1003172608A7001A206F1438
:0200F200080004
:1000F4008C28803083120317A3009F28C030A300EC
:100104009F289430A3009F28D430A3009F288030D8
:10011400A3009F28831203172308013A03197B289D
:100124002308023A031980282308033A0319832871
:100134002308043A0319862889282403F000230895
:10014400F0077008A3007008A7001A206F10831628
:10015400EF016F08831203172507840000080319B1
:10016400C028831603136F0883120317250784001E
:100174000008A60071208316EF0AAB28031383122C
:040184006F140800EC
:10018800D628803083120317A000E928C030A000C9
:10019800E9289430A000E928D430A000E92880306C
:1001A800A000E928831203172008013A0319C5287B
:1001B8002008023A0319CA282008033A0319CD284F
:1001C8002008043A0319D028D3282103F000200876
:1001D800F0077008A00003136F1470080317A70036
:1001E8001A206F1003172208A7001A206F1408009E
:1001F800013083120317A7001A2001300317A30048
:100208000130A400C130A5007A2002300317A300F2
:100218000130A400B030A5007A201A30FC00F83074
:10022800FD00FD0B1529FC0B15290000A9308600DF
:100238001A30FC00F830FD00FD0B2029FC0B2029AA
:100248000000093086000E30FB003130FC0094308D
:10025800FD00FD0B2D29FC0B2D29FB0B2D29000082
:1002680001300317A7001A2001300317A30001303B
:10027800A400D130A5007A2002300317A300013072
:0A028800A4001030A5007A20080041
:10029200013083120317A7001A201A30FC00F8302D
:1002A200FD00FD0B5229FC0B5229000001300317FF
:1002B200A3000130A400E030A5007A200230031729
:1002C200A3000130A400A030A5007A201A30FC005F
:1002D200F830FD00FD0B6B29FC0B6B290000C230CE
:1002E20086001A30FC00F830FD00FD0B7629FC0B6D
:1002F20076290000123086001530FB004B30FC00DE
:10030200BE30FD00FD0B8329FC0B8329FB0B8329E7
:1003120000001430860001300317A7001A200130B4
:100322000317A3000130A4004130A5007A20023057
:100332000317A3000130A4003430A5007A2008007E
:0E034200831203136E088A006D088200080003
:1003500083160313881108110812881208138813D2
:1003600083128811081188130813881208120D20AF
:100370000D200D208816081688150A2088110D20DA
:1003800088150A2088110D2088150A2088110D2053
:10039000081288150A2088110D2088150A20881156
:1003A0008812881788150A2088110D2088130816CE
:1003B00088150A208811081288150A2088110D2036
:1003C00088150A208811081688150A2088110D2022
:1003D000081288150A208811881708178816081629
:0C03E00088150A2088110D206F140800F9
:1003EC00013083120317A7001A2001300317A30052
:1003FC000130A4002030A5007A20013003179C00A6
:10040C0000309D0009309E0000309F008030F000CD
:10041C0080301D067002031D152A1C080A3C031CA3
:10042C00352A0230A0000C30A10030301E07A2008B
:10043C00C4200230FB000430FC00BA30FD00FD0B80
:10044C00252AFC0B252AFB0B252A000003179C0AE6
:10045C0003199D0A01309E02031C9F030C2AFC20E9
:10046C000B30FB002630FC005D30FD00FD0B3C2A00
:10047C00FC0B3C2AFB0B3C2A00000000013003174C
:10048C00A7001A2001300317A3000130A4002A3062
:10049C00A5007A20013003179C0000309D00093024
:1004AC009E0000309F008030F00080301D067002EE
:1004BC00031D622A1C080A3C031C822A0230A0007D
:1004CC000C30A10030301E07A200C4200230FB000B
:1004DC000430FC00BA30FD00FD0B722AFC0B722AB2
:1004EC00FB0B722A000003179C0A03199D0A0130AA
:1004FC009E02031C9F03592A49210B30FB00263016
:10050C00FC005D30FD00FD0B892AFC0B892AFB0BDE
:08051C00892A0000000008001C
:10052400A1218A110A128000840AED0A0319EE0A35
:08053400F003031D922A0800E8
:10053C007C23831603138801FF3087008601143057
:10054C0083128600A8210C300317A7001A20013053
:10055C000317A3000530A4005230A5007A20023006
:10056C000317A3000130A4005C30A5007A200B30E7
:10057C00FB002630FC005D30FD00FD0BC32AFC0B9C
:10058C00C32AFB0BC32A00000000F621BD2ACD2A8A
:1006F800203084004D3083120313F0002230ED00C7
:100708000330EE009222A03084004F300313F00033
:10071800D330ED000230EE009222103083178400AF
:100728000C300313F0006F30ED000330EE0092221E
:04073800831308001F
:1005A6004734613474346534203469347334203408
:1005B6004F34703465346E3469346E3467340034C5
:1005C6004E34653461347234203474346F342034DC
:1005D600633472346F347334733469346E3467340D
:0205E6000034DF
:1005E80041347434743465346E34743469346F341B
:1005F8006E34203474347234613469346E340034A7
:1006080047346134743465342034693473342034A5
:0E06180043346C346F3473346534643400340E
:1006260053347434613472347434203479346F340E
:0E06360075347234203443346134723400342D
:10064400543469346D34653420344C346534663440
:0406540074340034C6
:10065800543469346D34653420344C34653466342C
:0406680074340034B2
:10066C00533461346634653420346A346F347534F1
:0A067C0072346E34653479340034B2
:100686004734613474346534203469347334203427
:100696006E346F34773420344F34703465346E34AE
:0206A60000341E
:1006A8004134753474346F346D3461347434653462
:0406B8006434003472
:1006BC005234613469346C34773461347934203495
:1006CC00433472346F347334733469346E34673436
:0206DC000034E8
:1006DE0050346C346534613473346534203457349B
:0806EE006134693474340034F6
:04400E00F22F000786
:00000001FF
